{
  "_format": "hh-sol-artifact-1",
  "contractName": "BorrowYourCar",
  "sourceName": "contracts/BorrowYourCar.sol",
  "abi": [
    {
      "inputs": [],
      "stateMutability": "nonpayable",
      "type": "constructor"
    },
    {
      "anonymous": false,
      "inputs": [
        {
          "indexed": false,
          "internalType": "uint256",
          "name": "carTokenId",
          "type": "uint256"
        },
        {
          "indexed": false,
          "internalType": "address",
          "name": "borrower",
          "type": "address"
        },
        {
          "indexed": false,
          "internalType": "uint256",
          "name": "startTime",
          "type": "uint256"
        },
        {
          "indexed": false,
          "internalType": "uint256",
          "name": "duration",
          "type": "uint256"
        }
      ],
      "name": "CarBorrowed",
      "type": "event"
    },
    {
      "anonymous": false,
      "inputs": [
        {
          "indexed": false,
          "internalType": "uint256",
          "name": "carTokenId",
          "type": "uint256"
        },
        {
          "indexed": false,
          "internalType": "address",
          "name": "owner",
          "type": "address"
        }
      ],
      "name": "CarRent",
      "type": "event"
    },
    {
      "inputs": [
        {
          "internalType": "uint256",
          "name": "carTokenId",
          "type": "uint256"
        },
        {
          "internalType": "uint256",
          "name": "duration",
          "type": "uint256"
        }
      ],
      "name": "borrow",
      "outputs": [],
      "stateMutability": "nonpayable",
      "type": "function"
    },
    {
      "inputs": [
        {
          "internalType": "uint256",
          "name": "carTokenId",
          "type": "uint256"
        }
      ],
      "name": "borrowerOf",
      "outputs": [
        {
          "internalType": "address",
          "name": "",
          "type": "address"
        }
      ],
      "stateMutability": "view",
      "type": "function"
    },
    {
      "inputs": [
        {
          "internalType": "uint256",
          "name": "",
          "type": "uint256"
        }
      ],
      "name": "cars",
      "outputs": [
        {
          "internalType": "address",
          "name": "owner",
          "type": "address"
        },
        {
          "internalType": "address",
          "name": "borrower",
          "type": "address"
        },
        {
          "internalType": "uint256",
          "name": "borrowUntil",
          "type": "uint256"
        }
      ],
      "stateMutability": "view",
      "type": "function"
    },
    {
      "inputs": [
        {
          "internalType": "address",
          "name": "",
          "type": "address"
        },
        {
          "internalType": "uint256",
          "name": "",
          "type": "uint256"
        }
      ],
      "name": "myCars",
      "outputs": [
        {
          "internalType": "uint256",
          "name": "",
          "type": "uint256"
        }
      ],
      "stateMutability": "view",
      "type": "function"
    },
    {
      "inputs": [
        {
          "internalType": "uint256",
          "name": "carTokenId",
          "type": "uint256"
        }
      ],
      "name": "ownerOf",
      "outputs": [
        {
          "internalType": "address",
          "name": "owner",
          "type": "address"
        }
      ],
      "stateMutability": "view",
      "type": "function"
    },
    {
      "inputs": [],
      "name": "rent",
      "outputs": [],
      "stateMutability": "nonpayable",
      "type": "function"
    },
    {
      "inputs": [],
      "name": "seeMyCars",
      "outputs": [
        {
          "components": [
            {
              "internalType": "uint256",
              "name": "carTokenId",
              "type": "uint256"
            },
            {
              "internalType": "address",
              "name": "owner",
              "type": "address"
            },
            {
              "internalType": "address",
              "name": "borrower",
              "type": "address"
            },
            {
              "internalType": "uint256",
              "name": "borrowUntil",
              "type": "uint256"
            }
          ],
          "internalType": "struct BorrowYourCar.CarReturn[]",
          "name": "",
          "type": "tuple[]"
        }
      ],
      "stateMutability": "view",
      "type": "function"
    },
    {
      "inputs": [],
      "name": "showAllCars",
      "outputs": [
        {
          "components": [
            {
              "internalType": "uint256",
              "name": "carTokenId",
              "type": "uint256"
            },
            {
              "internalType": "address",
              "name": "owner",
              "type": "address"
            },
            {
              "internalType": "address",
              "name": "borrower",
              "type": "address"
            },
            {
              "internalType": "uint256",
              "name": "borrowUntil",
              "type": "uint256"
            }
          ],
          "internalType": "struct BorrowYourCar.CarReturn[]",
          "name": "result",
          "type": "tuple[]"
        }
      ],
      "stateMutability": "view",
      "type": "function"
    }
  ],
  "bytecode": "0x608060405234801561001057600080fd5b506000600281905550611150806100286000396000f3fe608060405234801561001057600080fd5b50600436106100885760003560e01c806382996d9f1161005b57806382996d9f14610139578063af681d2014610143578063bdf565cd14610161578063f7746e361461017f57610088565b80630ecbcdab1461008d5780631908ef53146100a95780632a24d53d146100d95780636352211e14610109575b600080fd5b6100a760048036038101906100a29190610c66565b6101b1565b005b6100c360048036038101906100be9190610d04565b610286565b6040516100d09190610d53565b60405180910390f35b6100f360048036038101906100ee9190610d6e565b6102b7565b6040516101009190610daa565b60405180910390f35b610123600480360381019061011e9190610d6e565b61030e565b6040516101309190610daa565b60405180910390f35b610141610386565b005b61014b6104f6565b6040516101589190610ee7565b60405180910390f35b610169610712565b6040516101769190610ee7565b60405180910390f35b61019960048036038101906101949190610d6e565b610a00565b6040516101a893929190610f09565b60405180910390f35b6101bb3383610a6a565b1580156101ce57506101cc82610abe565b155b6101d757600080fd5b60008060008481526020019081526020016000209050338160010160006101000a81548173ffffffffffffffffffffffffffffffffffffffff021916908373ffffffffffffffffffffffffffffffffffffffff160217905550814261023c9190610f6f565b81600201819055507f8879d78706834dc00d82232992f71250fab6a1f70b08260968253950083d88cd833342856040516102799493929190610fa3565b60405180910390a1505050565b600160205281600052604060002081815481106102a257600080fd5b90600052602060002001600091509150505481565b60006102c282610abe565b156103045760008083815260200190815260200160002060010160009054906101000a900473ffffffffffffffffffffffffffffffffffffffff169050610309565b600090505b919050565b600080600083815260200190815260200160002060000160009054906101000a900473ffffffffffffffffffffffffffffffffffffffff169050600073ffffffffffffffffffffffffffffffffffffffff168173ffffffffffffffffffffffffffffffffffffffff160361038157600080fd5b919050565b6000339050600080600060026000815461039f90610fe8565b91905081905581526020019081526020016000209050338160000160006101000a81548173ffffffffffffffffffffffffffffffffffffffff021916908373ffffffffffffffffffffffffffffffffffffffff16021790555060008160010160006101000a81548173ffffffffffffffffffffffffffffffffffffffff021916908373ffffffffffffffffffffffffffffffffffffffff16021790555060008160020181905550600160008373ffffffffffffffffffffffffffffffffffffffff1673ffffffffffffffffffffffffffffffffffffffff16815260200190815260200160002060025490806001815401808255809150506001900390600052602060002001600090919091909150556104b733610aee565b7f45d1fc4ed038921d2f6046a973742b0915615895bcd9988e1d91801728df0e79600254836040516104ea929190611030565b60405180910390a15050565b606060025467ffffffffffffffff81111561051457610513611059565b5b60405190808252806020026020018201604052801561054d57816020015b61053a610bcd565b8152602001906001900390816105325790505b5090506000600190505b600254811161070e57808260018361056f9190611088565b815181106105805761057f6110bc565b5b6020026020010151600001818152505060008082815260200190815260200160002060000160009054906101000a900473ffffffffffffffffffffffffffffffffffffffff16826001836105d49190611088565b815181106105e5576105e46110bc565b5b60200260200101516020019073ffffffffffffffffffffffffffffffffffffffff16908173ffffffffffffffffffffffffffffffffffffffff168152505060008082815260200190815260200160002060010160009054906101000a900473ffffffffffffffffffffffffffffffffffffffff16826001836106679190611088565b81518110610678576106776110bc565b5b60200260200101516040019073ffffffffffffffffffffffffffffffffffffffff16908173ffffffffffffffffffffffffffffffffffffffff168152505060008082815260200190815260200160002060020154826001836106da9190611088565b815181106106eb576106ea6110bc565b5b60200260200101516060018181525050808061070690610fe8565b915050610557565b5090565b606060003390506000600160008373ffffffffffffffffffffffffffffffffffffffff1673ffffffffffffffffffffffffffffffffffffffff1681526020019081526020016000208054806020026020016040519081016040528092919081815260200182805480156107a457602002820191906000526020600020905b815481526020019060010190808311610790575b505050505090506000815167ffffffffffffffff8111156107c8576107c7611059565b5b60405190808252806020026020018201604052801561080157816020015b6107ee610bcd565b8152602001906001900390816107e65790505b50905060005b82518110156109f657600080848381518110610826576108256110bc565b5b6020026020010151815260200190815260200160002060000160009054906101000a900473ffffffffffffffffffffffffffffffffffffffff16828281518110610873576108726110bc565b5b60200260200101516020019073ffffffffffffffffffffffffffffffffffffffff16908173ffffffffffffffffffffffffffffffffffffffff16815250506000808483815181106108c7576108c66110bc565b5b6020026020010151815260200190815260200160002060010160009054906101000a900473ffffffffffffffffffffffffffffffffffffffff16828281518110610914576109136110bc565b5b60200260200101516040019073ffffffffffffffffffffffffffffffffffffffff16908173ffffffffffffffffffffffffffffffffffffffff1681525050828181518110610965576109646110bc565b5b60200260200101518282815181106109805761097f6110bc565b5b602002602001015160000181815250506000808483815181106109a6576109a56110bc565b5b60200260200101518152602001908152602001600020600201548282815181106109d3576109d26110bc565b5b6020026020010151606001818152505080806109ee90610fe8565b915050610807565b5080935050505090565b60006020528060005260406000206000915090508060000160009054906101000a900473ffffffffffffffffffffffffffffffffffffffff16908060010160009054906101000a900473ffffffffffffffffffffffffffffffffffffffff16908060020154905083565b600080610a768361030e565b90508373ffffffffffffffffffffffffffffffffffffffff168173ffffffffffffffffffffffffffffffffffffffff1614610ab2576000610ab5565b60015b91505092915050565b600042600080848152602001908152602001600020600201541015610ae4576000610ae7565b60015b9050919050565b610b8481604051602401610b029190610daa565b6040516020818303038152906040527f2c2ecbc2000000000000000000000000000000000000000000000000000000007bffffffffffffffffffffffffffffffffffffffffffffffffffffffff19166020820180517bffffffffffffffffffffffffffffffffffffffffffffffffffffffff8381831617835250505050610b87565b50565b610b9e81610b96610ba1610bc2565b63ffffffff16565b50565b60006a636f6e736f6c652e6c6f679050600080835160208501845afa505050565b610c21819050919050565b604051806080016040528060008152602001600073ffffffffffffffffffffffffffffffffffffffff168152602001600073ffffffffffffffffffffffffffffffffffffffff168152602001600081525090565b610c296110eb565b565b600080fd5b6000819050919050565b610c4381610c30565b8114610c4e57600080fd5b50565b600081359050610c6081610c3a565b92915050565b60008060408385031215610c7d57610c7c610c2b565b5b6000610c8b85828601610c51565b9250506020610c9c85828601610c51565b9150509250929050565b600073ffffffffffffffffffffffffffffffffffffffff82169050919050565b6000610cd182610ca6565b9050919050565b610ce181610cc6565b8114610cec57600080fd5b50565b600081359050610cfe81610cd8565b92915050565b60008060408385031215610d1b57610d1a610c2b565b5b6000610d2985828601610cef565b9250506020610d3a85828601610c51565b9150509250929050565b610d4d81610c30565b82525050565b6000602082019050610d686000830184610d44565b92915050565b600060208284031215610d8457610d83610c2b565b5b6000610d9284828501610c51565b91505092915050565b610da481610cc6565b82525050565b6000602082019050610dbf6000830184610d9b565b92915050565b600081519050919050565b600082825260208201905092915050565b6000819050602082019050919050565b610dfa81610c30565b82525050565b610e0981610cc6565b82525050565b608082016000820151610e256000850182610df1565b506020820151610e386020850182610e00565b506040820151610e4b6040850182610e00565b506060820151610e5e6060850182610df1565b50505050565b6000610e708383610e0f565b60808301905092915050565b6000602082019050919050565b6000610e9482610dc5565b610e9e8185610dd0565b9350610ea983610de1565b8060005b83811015610eda578151610ec18882610e64565b9750610ecc83610e7c565b925050600181019050610ead565b5085935050505092915050565b60006020820190508181036000830152610f018184610e89565b905092915050565b6000606082019050610f1e6000830186610d9b565b610f2b6020830185610d9b565b610f386040830184610d44565b949350505050565b7f4e487b7100000000000000000000000000000000000000000000000000000000600052601160045260246000fd5b6000610f7a82610c30565b9150610f8583610c30565b9250828201905080821115610f9d57610f9c610f40565b5b92915050565b6000608082019050610fb86000830187610d44565b610fc56020830186610d9b565b610fd26040830185610d44565b610fdf6060830184610d44565b95945050505050565b6000610ff382610c30565b91507fffffffffffffffffffffffffffffffffffffffffffffffffffffffffffffffff820361102557611024610f40565b5b600182019050919050565b60006040820190506110456000830185610d44565b6110526020830184610d9b565b9392505050565b7f4e487b7100000000000000000000000000000000000000000000000000000000600052604160045260246000fd5b600061109382610c30565b915061109e83610c30565b92508282039050818111156110b6576110b5610f40565b5b92915050565b7f4e487b7100000000000000000000000000000000000000000000000000000000600052603260045260246000fd5b7f4e487b7100000000000000000000000000000000000000000000000000000000600052605160045260246000fdfea26469706673582212207289c8708c5d40c780539b249804918a46c1d428782cc6a5e2d6b83366e6655964736f6c63430008140033",
  "linkReferences": {},
  "deployedLinkReferences": {}
}