{
  "_format": "hh-sol-artifact-1",
  "contractName": "BorrowYourCar",
  "sourceName": "contracts/BorrowYourCar.sol",
  "abi": [
    {
      "inputs": [],
      "stateMutability": "nonpayable",
      "type": "constructor"
    },
    {
      "anonymous": false,
      "inputs": [
        {
          "indexed": false,
          "internalType": "uint256",
          "name": "carTokenId",
          "type": "uint256"
        },
        {
          "indexed": false,
          "internalType": "address",
          "name": "borrower",
          "type": "address"
        },
        {
          "indexed": false,
          "internalType": "uint256",
          "name": "startTime",
          "type": "uint256"
        },
        {
          "indexed": false,
          "internalType": "uint256",
          "name": "duration",
          "type": "uint256"
        }
      ],
      "name": "CarBorrowed",
      "type": "event"
    },
    {
      "anonymous": false,
      "inputs": [
        {
          "indexed": false,
          "internalType": "uint256",
          "name": "carTokenId",
          "type": "uint256"
        },
        {
          "indexed": false,
          "internalType": "address",
          "name": "owner",
          "type": "address"
        }
      ],
      "name": "CarRent",
      "type": "event"
    },
    {
      "inputs": [
        {
          "internalType": "uint256",
          "name": "carTokenId",
          "type": "uint256"
        },
        {
          "internalType": "uint256",
          "name": "duration",
          "type": "uint256"
        }
      ],
      "name": "borrow",
      "outputs": [],
      "stateMutability": "nonpayable",
      "type": "function"
    },
    {
      "inputs": [
        {
          "internalType": "uint256",
          "name": "carTokenId",
          "type": "uint256"
        }
      ],
      "name": "borrowerOf",
      "outputs": [
        {
          "internalType": "address",
          "name": "",
          "type": "address"
        }
      ],
      "stateMutability": "view",
      "type": "function"
    },
    {
      "inputs": [
        {
          "internalType": "uint256",
          "name": "",
          "type": "uint256"
        }
      ],
      "name": "cars",
      "outputs": [
        {
          "internalType": "address",
          "name": "owner",
          "type": "address"
        },
        {
          "internalType": "address",
          "name": "borrower",
          "type": "address"
        },
        {
          "internalType": "uint256",
          "name": "borrowUntil",
          "type": "uint256"
        }
      ],
      "stateMutability": "view",
      "type": "function"
    },
    {
      "inputs": [
        {
          "internalType": "address",
          "name": "",
          "type": "address"
        },
        {
          "internalType": "uint256",
          "name": "",
          "type": "uint256"
        }
      ],
      "name": "myCars",
      "outputs": [
        {
          "internalType": "uint256",
          "name": "",
          "type": "uint256"
        }
      ],
      "stateMutability": "view",
      "type": "function"
    },
    {
      "inputs": [],
      "name": "myERC20",
      "outputs": [
        {
          "internalType": "contract MyERC20",
          "name": "",
          "type": "address"
        }
      ],
      "stateMutability": "view",
      "type": "function"
    },
    {
      "inputs": [
        {
          "internalType": "uint256",
          "name": "carTokenId",
          "type": "uint256"
        }
      ],
      "name": "ownerOf",
      "outputs": [
        {
          "internalType": "address",
          "name": "owner",
          "type": "address"
        }
      ],
      "stateMutability": "view",
      "type": "function"
    },
    {
      "inputs": [],
      "name": "rent",
      "outputs": [],
      "stateMutability": "nonpayable",
      "type": "function"
    },
    {
      "inputs": [],
      "name": "seeMyCars",
      "outputs": [
        {
          "components": [
            {
              "internalType": "uint256",
              "name": "carTokenId",
              "type": "uint256"
            },
            {
              "internalType": "address",
              "name": "owner",
              "type": "address"
            },
            {
              "internalType": "address",
              "name": "borrower",
              "type": "address"
            },
            {
              "internalType": "uint256",
              "name": "borrowUntil",
              "type": "uint256"
            }
          ],
          "internalType": "struct BorrowYourCar.CarReturn[]",
          "name": "",
          "type": "tuple[]"
        }
      ],
      "stateMutability": "view",
      "type": "function"
    },
    {
      "inputs": [],
      "name": "showAllCars",
      "outputs": [
        {
          "components": [
            {
              "internalType": "uint256",
              "name": "carTokenId",
              "type": "uint256"
            },
            {
              "internalType": "address",
              "name": "owner",
              "type": "address"
            },
            {
              "internalType": "address",
              "name": "borrower",
              "type": "address"
            },
            {
              "internalType": "uint256",
              "name": "borrowUntil",
              "type": "uint256"
            }
          ],
          "internalType": "struct BorrowYourCar.CarReturn[]",
          "name": "result",
          "type": "tuple[]"
        }
      ],
      "stateMutability": "view",
      "type": "function"
    }
  ],
  "bytecode": "0x60806040523480156200001157600080fd5b506000600381905550604051620000289062000096565b620000339062000155565b604051809103906000f08015801562000050573d6000803e3d6000fd5b506000806101000a81548173ffffffffffffffffffffffffffffffffffffffff021916908373ffffffffffffffffffffffffffffffffffffffff1602179055506200018c565b6116b680620014fa83390190565b600082825260208201905092915050565b7f4a4a436f696e0000000000000000000000000000000000000000000000000000600082015250565b6000620000ed600683620000a4565b9150620000fa82620000b5565b602082019050919050565b7f4a4a430000000000000000000000000000000000000000000000000000000000600082015250565b60006200013d600383620000a4565b91506200014a8262000105565b602082019050919050565b600060408201905081810360008301526200017081620000de565b9050818103602083015262000185816200012e565b9050919050565b61135e806200019c6000396000f3fe608060405234801561001057600080fd5b50600436106100935760003560e01c80636d3739c4116100665780636d3739c41461014457806382996d9f14610162578063af681d201461016c578063bdf565cd1461018a578063f7746e36146101a857610093565b80630ecbcdab146100985780631908ef53146100b45780632a24d53d146100e45780636352211e14610114575b600080fd5b6100b260048036038101906100ad9190610d95565b6101da565b005b6100ce60048036038101906100c99190610e33565b610387565b6040516100db9190610e82565b60405180910390f35b6100fe60048036038101906100f99190610e9d565b6103b8565b60405161010b9190610ed9565b60405180910390f35b61012e60048036038101906101299190610e9d565b610410565b60405161013b9190610ed9565b60405180910390f35b61014c610489565b6040516101599190610f53565b60405180910390f35b61016a6104ad565b005b61017461061e565b6040516101819190611090565b60405180910390f35b61019261083d565b60405161019f9190611090565b60405180910390f35b6101c260048036038101906101bd9190610e9d565b610b2e565b6040516101d1939291906110b2565b60405180910390f35b6101e43383610b98565b1580156101f757506101f582610bec565b155b61020057600080fd5b60008054906101000a900473ffffffffffffffffffffffffffffffffffffffff1673ffffffffffffffffffffffffffffffffffffffff166323b872dd336001600086815260200190815260200160002060000160009054906101000a900473ffffffffffffffffffffffffffffffffffffffff16846040518463ffffffff1660e01b8152600401610293939291906110b2565b6020604051808303816000875af11580156102b2573d6000803e3d6000fd5b505050506040513d601f19601f820116820180604052508101906102d69190611121565b506000600160008481526020019081526020016000209050338160010160006101000a81548173ffffffffffffffffffffffffffffffffffffffff021916908373ffffffffffffffffffffffffffffffffffffffff160217905550814261033d919061117d565b81600201819055507f8879d78706834dc00d82232992f71250fab6a1f70b08260968253950083d88cd8333428560405161037a94939291906111b1565b60405180910390a1505050565b600260205281600052604060002081815481106103a357600080fd5b90600052602060002001600091509150505481565b60006103c382610bec565b15610406576001600083815260200190815260200160002060010160009054906101000a900473ffffffffffffffffffffffffffffffffffffffff16905061040b565b600090505b919050565b60006001600083815260200190815260200160002060000160009054906101000a900473ffffffffffffffffffffffffffffffffffffffff169050600073ffffffffffffffffffffffffffffffffffffffff168173ffffffffffffffffffffffffffffffffffffffff160361048457600080fd5b919050565b60008054906101000a900473ffffffffffffffffffffffffffffffffffffffff1681565b60003390506000600160006003600081546104c7906111f6565b91905081905581526020019081526020016000209050338160000160006101000a81548173ffffffffffffffffffffffffffffffffffffffff021916908373ffffffffffffffffffffffffffffffffffffffff16021790555060008160010160006101000a81548173ffffffffffffffffffffffffffffffffffffffff021916908373ffffffffffffffffffffffffffffffffffffffff16021790555060008160020181905550600260008373ffffffffffffffffffffffffffffffffffffffff1673ffffffffffffffffffffffffffffffffffffffff16815260200190815260200160002060035490806001815401808255809150506001900390600052602060002001600090919091909150556105df33610c1d565b7f45d1fc4ed038921d2f6046a973742b0915615895bcd9988e1d91801728df0e796003548360405161061292919061123e565b60405180910390a15050565b606060035467ffffffffffffffff81111561063c5761063b611267565b5b60405190808252806020026020018201604052801561067557816020015b610662610cfc565b81526020019060019003908161065a5790505b5090506000600190505b60035481116108395780826001836106979190611296565b815181106106a8576106a76112ca565b5b602002602001015160000181815250506001600082815260200190815260200160002060000160009054906101000a900473ffffffffffffffffffffffffffffffffffffffff16826001836106fd9190611296565b8151811061070e5761070d6112ca565b5b60200260200101516020019073ffffffffffffffffffffffffffffffffffffffff16908173ffffffffffffffffffffffffffffffffffffffff16815250506001600082815260200190815260200160002060010160009054906101000a900473ffffffffffffffffffffffffffffffffffffffff16826001836107919190611296565b815181106107a2576107a16112ca565b5b60200260200101516040019073ffffffffffffffffffffffffffffffffffffffff16908173ffffffffffffffffffffffffffffffffffffffff16815250506001600082815260200190815260200160002060020154826001836108059190611296565b81518110610816576108156112ca565b5b602002602001015160600181815250508080610831906111f6565b91505061067f565b5090565b606060003390506000600260008373ffffffffffffffffffffffffffffffffffffffff1673ffffffffffffffffffffffffffffffffffffffff1681526020019081526020016000208054806020026020016040519081016040528092919081815260200182805480156108cf57602002820191906000526020600020905b8154815260200190600101908083116108bb575b505050505090506000815167ffffffffffffffff8111156108f3576108f2611267565b5b60405190808252806020026020018201604052801561092c57816020015b610919610cfc565b8152602001906001900390816109115790505b50905060005b8251811015610b245760016000848381518110610952576109516112ca565b5b6020026020010151815260200190815260200160002060000160009054906101000a900473ffffffffffffffffffffffffffffffffffffffff1682828151811061099f5761099e6112ca565b5b60200260200101516020019073ffffffffffffffffffffffffffffffffffffffff16908173ffffffffffffffffffffffffffffffffffffffff1681525050600160008483815181106109f4576109f36112ca565b5b6020026020010151815260200190815260200160002060010160009054906101000a900473ffffffffffffffffffffffffffffffffffffffff16828281518110610a4157610a406112ca565b5b60200260200101516040019073ffffffffffffffffffffffffffffffffffffffff16908173ffffffffffffffffffffffffffffffffffffffff1681525050828181518110610a9257610a916112ca565b5b6020026020010151828281518110610aad57610aac6112ca565b5b6020026020010151600001818152505060016000848381518110610ad457610ad36112ca565b5b6020026020010151815260200190815260200160002060020154828281518110610b0157610b006112ca565b5b602002602001015160600181815250508080610b1c906111f6565b915050610932565b5080935050505090565b60016020528060005260406000206000915090508060000160009054906101000a900473ffffffffffffffffffffffffffffffffffffffff16908060010160009054906101000a900473ffffffffffffffffffffffffffffffffffffffff16908060020154905083565b600080610ba483610410565b90508373ffffffffffffffffffffffffffffffffffffffff168173ffffffffffffffffffffffffffffffffffffffff1614610be0576000610be3565b60015b91505092915050565b60004260016000848152602001908152602001600020600201541015610c13576000610c16565b60015b9050919050565b610cb381604051602401610c319190610ed9565b6040516020818303038152906040527f2c2ecbc2000000000000000000000000000000000000000000000000000000007bffffffffffffffffffffffffffffffffffffffffffffffffffffffff19166020820180517bffffffffffffffffffffffffffffffffffffffffffffffffffffffff8381831617835250505050610cb6565b50565b610ccd81610cc5610cd0610cf1565b63ffffffff16565b50565b60006a636f6e736f6c652e6c6f679050600080835160208501845afa505050565b610d50819050919050565b604051806080016040528060008152602001600073ffffffffffffffffffffffffffffffffffffffff168152602001600073ffffffffffffffffffffffffffffffffffffffff168152602001600081525090565b610d586112f9565b565b600080fd5b6000819050919050565b610d7281610d5f565b8114610d7d57600080fd5b50565b600081359050610d8f81610d69565b92915050565b60008060408385031215610dac57610dab610d5a565b5b6000610dba85828601610d80565b9250506020610dcb85828601610d80565b9150509250929050565b600073ffffffffffffffffffffffffffffffffffffffff82169050919050565b6000610e0082610dd5565b9050919050565b610e1081610df5565b8114610e1b57600080fd5b50565b600081359050610e2d81610e07565b92915050565b60008060408385031215610e4a57610e49610d5a565b5b6000610e5885828601610e1e565b9250506020610e6985828601610d80565b9150509250929050565b610e7c81610d5f565b82525050565b6000602082019050610e976000830184610e73565b92915050565b600060208284031215610eb357610eb2610d5a565b5b6000610ec184828501610d80565b91505092915050565b610ed381610df5565b82525050565b6000602082019050610eee6000830184610eca565b92915050565b6000819050919050565b6000610f19610f14610f0f84610dd5565b610ef4565b610dd5565b9050919050565b6000610f2b82610efe565b9050919050565b6000610f3d82610f20565b9050919050565b610f4d81610f32565b82525050565b6000602082019050610f686000830184610f44565b92915050565b600081519050919050565b600082825260208201905092915050565b6000819050602082019050919050565b610fa381610d5f565b82525050565b610fb281610df5565b82525050565b608082016000820151610fce6000850182610f9a565b506020820151610fe16020850182610fa9565b506040820151610ff46040850182610fa9565b5060608201516110076060850182610f9a565b50505050565b60006110198383610fb8565b60808301905092915050565b6000602082019050919050565b600061103d82610f6e565b6110478185610f79565b935061105283610f8a565b8060005b8381101561108357815161106a888261100d565b975061107583611025565b925050600181019050611056565b5085935050505092915050565b600060208201905081810360008301526110aa8184611032565b905092915050565b60006060820190506110c76000830186610eca565b6110d46020830185610eca565b6110e16040830184610e73565b949350505050565b60008115159050919050565b6110fe816110e9565b811461110957600080fd5b50565b60008151905061111b816110f5565b92915050565b60006020828403121561113757611136610d5a565b5b60006111458482850161110c565b91505092915050565b7f4e487b7100000000000000000000000000000000000000000000000000000000600052601160045260246000fd5b600061118882610d5f565b915061119383610d5f565b92508282019050808211156111ab576111aa61114e565b5b92915050565b60006080820190506111c66000830187610e73565b6111d36020830186610eca565b6111e06040830185610e73565b6111ed6060830184610e73565b95945050505050565b600061120182610d5f565b91507fffffffffffffffffffffffffffffffffffffffffffffffffffffffffffffffff82036112335761123261114e565b5b600182019050919050565b60006040820190506112536000830185610e73565b6112606020830184610eca565b9392505050565b7f4e487b7100000000000000000000000000000000000000000000000000000000600052604160045260246000fd5b60006112a182610d5f565b91506112ac83610d5f565b92508282039050818111156112c4576112c361114e565b5b92915050565b7f4e487b7100000000000000000000000000000000000000000000000000000000600052603260045260246000fd5b7f4e487b7100000000000000000000000000000000000000000000000000000000600052605160045260246000fdfea26469706673582212203452cff429cec4bb0503b5ee326b5f57579bb515f78d73b79fb99e18193450a264736f6c6343000814003360806040523480156200001157600080fd5b50604051620016b6380380620016b68339818101604052810190620000379190620001fa565b818181600390816200004a9190620004ca565b5080600490816200005c9190620004ca565b5050505050620005b1565b6000604051905090565b600080fd5b600080fd5b600080fd5b600080fd5b6000601f19601f8301169050919050565b7f4e487b7100000000000000000000000000000000000000000000000000000000600052604160045260246000fd5b620000d08262000085565b810181811067ffffffffffffffff82111715620000f257620000f162000096565b5b80604052505050565b60006200010762000067565b9050620001158282620000c5565b919050565b600067ffffffffffffffff82111562000138576200013762000096565b5b620001438262000085565b9050602081019050919050565b60005b838110156200017057808201518184015260208101905062000153565b60008484015250505050565b6000620001936200018d846200011a565b620000fb565b905082815260208101848484011115620001b257620001b162000080565b5b620001bf84828562000150565b509392505050565b600082601f830112620001df57620001de6200007b565b5b8151620001f18482602086016200017c565b91505092915050565b6000806040838503121562000214576200021362000071565b5b600083015167ffffffffffffffff81111562000235576200023462000076565b5b6200024385828601620001c7565b925050602083015167ffffffffffffffff81111562000267576200026662000076565b5b6200027585828601620001c7565b9150509250929050565b600081519050919050565b7f4e487b7100000000000000000000000000000000000000000000000000000000600052602260045260246000fd5b60006002820490506001821680620002d257607f821691505b602082108103620002e857620002e76200028a565b5b50919050565b60008190508160005260206000209050919050565b60006020601f8301049050919050565b600082821b905092915050565b600060088302620003527fffffffffffffffffffffffffffffffffffffffffffffffffffffffffffffffff8262000313565b6200035e868362000313565b95508019841693508086168417925050509392505050565b6000819050919050565b6000819050919050565b6000620003ab620003a56200039f8462000376565b62000380565b62000376565b9050919050565b6000819050919050565b620003c7836200038a565b620003df620003d682620003b2565b84845462000320565b825550505050565b600090565b620003f6620003e7565b62000403818484620003bc565b505050565b5b818110156200042b576200041f600082620003ec565b60018101905062000409565b5050565b601f8211156200047a576200044481620002ee565b6200044f8462000303565b810160208510156200045f578190505b620004776200046e8562000303565b83018262000408565b50505b505050565b600082821c905092915050565b60006200049f600019846008026200047f565b1980831691505092915050565b6000620004ba83836200048c565b9150826002028217905092915050565b620004d5826200027f565b67ffffffffffffffff811115620004f157620004f062000096565b5b620004fd8254620002b9565b6200050a8282856200042f565b600060209050601f8311600181146200054257600084156200052d578287015190505b620005398582620004ac565b865550620005a9565b601f1984166200055286620002ee565b60005b828110156200057c5784890151825560018201915060208501945060208101905062000555565b868310156200059c578489015162000598601f8916826200048c565b8355505b6001600288020188555050505b505050505050565b6110f580620005c16000396000f3fe608060405234801561001057600080fd5b50600436106100a95760003560e01c80633884d635116100715780633884d6351461016857806357c9ca141461017257806370a082311461019057806395d89b41146101c0578063a9059cbb146101de578063dd62ed3e1461020e576100a9565b806306fdde03146100ae578063095ea7b3146100cc57806318160ddd146100fc57806323b872dd1461011a578063313ce5671461014a575b600080fd5b6100b661023e565b6040516100c39190610cb7565b60405180910390f35b6100e660048036038101906100e19190610d72565b6102d0565b6040516100f39190610dcd565b60405180910390f35b6101046102f3565b6040516101119190610df7565b60405180910390f35b610134600480360381019061012f9190610e12565b6102fd565b6040516101419190610dcd565b60405180910390f35b61015261032c565b60405161015f9190610e81565b60405180910390f35b610170610335565b005b61017a61042f565b6040516101879190610dcd565b60405180910390f35b6101aa60048036038101906101a59190610e9c565b610483565b6040516101b79190610df7565b60405180910390f35b6101c86104cb565b6040516101d59190610cb7565b60405180910390f35b6101f860048036038101906101f39190610d72565b61055d565b6040516102059190610dcd565b60405180910390f35b61022860048036038101906102239190610ec9565b610580565b6040516102359190610df7565b60405180910390f35b60606003805461024d90610f38565b80601f016020809104026020016040519081016040528092919081815260200182805461027990610f38565b80156102c65780601f1061029b576101008083540402835291602001916102c6565b820191906000526020600020905b8154815290600101906020018083116102a957829003601f168201915b5050505050905090565b6000806102db610607565b90506102e881858561060f565b600191505092915050565b6000600254905090565b600080610308610607565b9050610315858285610621565b6103208585856106b5565b60019150509392505050565b60006012905090565b60001515600560003373ffffffffffffffffffffffffffffffffffffffff1673ffffffffffffffffffffffffffffffffffffffff16815260200190815260200160002060009054906101000a900460ff161515146103c8576040517f08c379a00000000000000000000000000000000000000000000000000000000081526004016103bf90610fdb565b60405180910390fd5b6103d533620f42406107a9565b6001600560003373ffffffffffffffffffffffffffffffffffffffff1673ffffffffffffffffffffffffffffffffffffffff16815260200190815260200160002060006101000a81548160ff021916908315150217905550565b6000600560003373ffffffffffffffffffffffffffffffffffffffff1673ffffffffffffffffffffffffffffffffffffffff16815260200190815260200160002060009054906101000a900460ff16905090565b60008060008373ffffffffffffffffffffffffffffffffffffffff1673ffffffffffffffffffffffffffffffffffffffff168152602001908152602001600020549050919050565b6060600480546104da90610f38565b80601f016020809104026020016040519081016040528092919081815260200182805461050690610f38565b80156105535780601f1061052857610100808354040283529160200191610553565b820191906000526020600020905b81548152906001019060200180831161053657829003601f168201915b5050505050905090565b600080610568610607565b90506105758185856106b5565b600191505092915050565b6000600160008473ffffffffffffffffffffffffffffffffffffffff1673ffffffffffffffffffffffffffffffffffffffff16815260200190815260200160002060008373ffffffffffffffffffffffffffffffffffffffff1673ffffffffffffffffffffffffffffffffffffffff16815260200190815260200160002054905092915050565b600033905090565b61061c838383600161082b565b505050565b600061062d8484610580565b90507fffffffffffffffffffffffffffffffffffffffffffffffffffffffffffffffff81146106af578181101561069f578281836040517ffb8f41b20000000000000000000000000000000000000000000000000000000081526004016106969392919061100a565b60405180910390fd5b6106ae8484848403600061082b565b5b50505050565b600073ffffffffffffffffffffffffffffffffffffffff168373ffffffffffffffffffffffffffffffffffffffff16036107275760006040517f96c6fd1e00000000000000000000000000000000000000000000000000000000815260040161071e9190611041565b60405180910390fd5b600073ffffffffffffffffffffffffffffffffffffffff168273ffffffffffffffffffffffffffffffffffffffff16036107995760006040517fec442f050000000000000000000000000000000000000000000000000000000081526004016107909190611041565b60405180910390fd5b6107a4838383610a02565b505050565b600073ffffffffffffffffffffffffffffffffffffffff168273ffffffffffffffffffffffffffffffffffffffff160361081b5760006040517fec442f050000000000000000000000000000000000000000000000000000000081526004016108129190611041565b60405180910390fd5b61082760008383610a02565b5050565b600073ffffffffffffffffffffffffffffffffffffffff168473ffffffffffffffffffffffffffffffffffffffff160361089d5760006040517fe602df050000000000000000000000000000000000000000000000000000000081526004016108949190611041565b60405180910390fd5b600073ffffffffffffffffffffffffffffffffffffffff168373ffffffffffffffffffffffffffffffffffffffff160361090f5760006040517f94280d620000000000000000000000000000000000000000000000000000000081526004016109069190611041565b60405180910390fd5b81600160008673ffffffffffffffffffffffffffffffffffffffff1673ffffffffffffffffffffffffffffffffffffffff16815260200190815260200160002060008573ffffffffffffffffffffffffffffffffffffffff1673ffffffffffffffffffffffffffffffffffffffff1681526020019081526020016000208190555080156109fc578273ffffffffffffffffffffffffffffffffffffffff168473ffffffffffffffffffffffffffffffffffffffff167f8c5be1e5ebec7d5bd14f71427d1e84f3dd0314c0f7b2291e5b200ac8c7c3b925846040516109f39190610df7565b60405180910390a35b50505050565b600073ffffffffffffffffffffffffffffffffffffffff168373ffffffffffffffffffffffffffffffffffffffff1603610a54578060026000828254610a48919061108b565b92505081905550610b27565b60008060008573ffffffffffffffffffffffffffffffffffffffff1673ffffffffffffffffffffffffffffffffffffffff16815260200190815260200160002054905081811015610ae0578381836040517fe450d38c000000000000000000000000000000000000000000000000000000008152600401610ad79392919061100a565b60405180910390fd5b8181036000808673ffffffffffffffffffffffffffffffffffffffff1673ffffffffffffffffffffffffffffffffffffffff16815260200190815260200160002081905550505b600073ffffffffffffffffffffffffffffffffffffffff168273ffffffffffffffffffffffffffffffffffffffff1603610b705780600260008282540392505081905550610bbd565b806000808473ffffffffffffffffffffffffffffffffffffffff1673ffffffffffffffffffffffffffffffffffffffff168152602001908152602001600020600082825401925050819055505b8173ffffffffffffffffffffffffffffffffffffffff168373ffffffffffffffffffffffffffffffffffffffff167fddf252ad1be2c89b69c2b068fc378daa952ba7f163c4a11628f55a4df523b3ef83604051610c1a9190610df7565b60405180910390a3505050565b600081519050919050565b600082825260208201905092915050565b60005b83811015610c61578082015181840152602081019050610c46565b60008484015250505050565b6000601f19601f8301169050919050565b6000610c8982610c27565b610c938185610c32565b9350610ca3818560208601610c43565b610cac81610c6d565b840191505092915050565b60006020820190508181036000830152610cd18184610c7e565b905092915050565b600080fd5b600073ffffffffffffffffffffffffffffffffffffffff82169050919050565b6000610d0982610cde565b9050919050565b610d1981610cfe565b8114610d2457600080fd5b50565b600081359050610d3681610d10565b92915050565b6000819050919050565b610d4f81610d3c565b8114610d5a57600080fd5b50565b600081359050610d6c81610d46565b92915050565b60008060408385031215610d8957610d88610cd9565b5b6000610d9785828601610d27565b9250506020610da885828601610d5d565b9150509250929050565b60008115159050919050565b610dc781610db2565b82525050565b6000602082019050610de26000830184610dbe565b92915050565b610df181610d3c565b82525050565b6000602082019050610e0c6000830184610de8565b92915050565b600080600060608486031215610e2b57610e2a610cd9565b5b6000610e3986828701610d27565b9350506020610e4a86828701610d27565b9250506040610e5b86828701610d5d565b9150509250925092565b600060ff82169050919050565b610e7b81610e65565b82525050565b6000602082019050610e966000830184610e72565b92915050565b600060208284031215610eb257610eb1610cd9565b5b6000610ec084828501610d27565b91505092915050565b60008060408385031215610ee057610edf610cd9565b5b6000610eee85828601610d27565b9250506020610eff85828601610d27565b9150509250929050565b7f4e487b7100000000000000000000000000000000000000000000000000000000600052602260045260246000fd5b60006002820490506001821680610f5057607f821691505b602082108103610f6357610f62610f09565b5b50919050565b7f54686973206163636f756e742068617320636c61696d65642061697264726f7060008201527f20616c7265616479000000000000000000000000000000000000000000000000602082015250565b6000610fc5602883610c32565b9150610fd082610f69565b604082019050919050565b60006020820190508181036000830152610ff481610fb8565b9050919050565b61100481610cfe565b82525050565b600060608201905061101f6000830186610ffb565b61102c6020830185610de8565b6110396040830184610de8565b949350505050565b60006020820190506110566000830184610ffb565b92915050565b7f4e487b7100000000000000000000000000000000000000000000000000000000600052601160045260246000fd5b600061109682610d3c565b91506110a183610d3c565b92508282019050808211156110b9576110b861105c565b5b9291505056fea26469706673582212200d2683bdb1b5b2c708c6c91f8d7d4e0e9e647bab2e3da7e5570e205313b157ea64736f6c63430008140033",
  "linkReferences": {},
  "deployedLinkReferences": {}
}